:020000040000FA
:100000000000022883160313811281110115811447
:1000100001148113F0308500FF30860085018316BE
:100020000313F03087008801880183160313FE3024
:10003000860083120313860183120313FF308700A7
:10004000880185010130D100D001D201D3010130F6
:10005000D3000330E3002C28F8210330C900C9087D
:1000600003193A289121CA218D219121C9032F28F2
:1000700083120313861C4328061D4328861D43282C
:10008000061E43283A28D5204E206C202C28D52047
:1000900013227C214E206C202C2847288312031326
:1000A000103084000330D200C020C7208000840AB2
:1000B000CE20D20B542802305302031C6B2853036A
:1000C000D2001030033E8400C020C7208000840A84
:1000D000CE20D20B64280800D32054210030E20047
:1000E0000030E4005308023ED400D5011030D600A1
:1000F00056088400000855085402031D80289A28D9
:1001000055085402B120A620FF3903198028D700D2
:100110008500CA21D3205608840000085706031D15
:100120009728D50A55085402031D9F289A280130A4
:10013000E40091286408FF39031DEA28A328D60AA1
:100140000030E20078283221BE20472883120313B2
:10015000861C0134061D0234861D0434061E083434
:100160000034E20AFA30DE21E63062060319622129
:100170000030A628FF390319B1280800D30A080067
:10018000831203130108D107D10ED10908005108C9
:100190000339820701340234043408348500CA214B
:1001A0008501CA210800850108008D218030F410E6
:1001B000E821F4144C30E8214530E8215630E8219C
:1001C0004530E8214C30E8212030E8215308303E0A
:1001D000E82108008D218030F410E821F414543017
:1001E000E8217230E8217930E8212030E8216130BF
:1001F000E8216730E8216130E8216930E8216E307C
:10020000E8212030E8216308303EE82103301C2239
:100210006308031916290130E3025308013C03194E
:1002200043285308013C031C472843288D21803074
:10023000F410E821F4144730E8216130E8216D30F2
:10024000E8216530E8212030E8216F30E821763060
:10025000E8216530E8217230E82103301C220330A8
:10026000E30043288D218030F410E821F41443305A
:10027000E8216F30E8216E30E8216730E8217230E4
:10028000E8216130E8217430E8217530E8216C30D4
:10029000E8216130E8216930E8216E30E8217330CF
:1002A000E82103301C2208008D218030F410E82161
:1002B000F4145030E8216C30E8216130E8217930C5
:1002C000E82108008D218030F410E821F414543026
:1002D000E8216930E8216D30E8216530E8212030DF
:1002E000E8216F30E8217630E8216530E82172306E
:1002F000E82103301C222C288030F410E821F4146B
:100300002030E8215330E8217430E8216130E821C1
:100310007230E8217430E82108000130F410E8213F
:1003200008008030F410E821F4145030E8217230D5
:10033000E8216530E8217330E8217330E82120306E
:10034000E8216130E8216E30E8217930E821203061
:10035000E8216230E8217530E8217430E8217430FA
:10036000E8216F30E8216E30E821C030F410E82138
:10037000F4147430E8216F30E8212030E821733024
:10038000E8217430E8216130E8217230E8217430CE
:10039000E82108000A30C600E830C7009030B900F4
:1003A0000000B90BD029C70BCE29C60BCC290800F9
:1003B000F930F0000000F00BDA290800F100D82134
:1003C000F10BDF2908000815D8210811D8210800F1
:1003D000F500F0398800F4188814E321D821F50ECF
:1003E0007508F0398800F4188814E321D821080032
:1003F0006430DE21F030F40030308800E321053035
:10040000DE21E321D821E3210812E3212830E8216D
:100410000830E8210130E8210630E8218030E82169
:100420000C30E8210800FA30DE21FA30DE21FA3003
:10043000DE21FA30DE210800F2001322F20B1D2A21
:020440000800B2
:04044200003400344E
:02400E00313748
:00000001FF
